:100000000C9461000C9473000C9473000C947300B6
:100010000C9473000C9473000C9473000C94730094
:100020000C9473000C9473000C9473000C94730084
:100030000C9473000C9473000C9473000C94730074
:100040000C9426010C9473000C9473000C947300B0
:100050000C9473000C9473000C9473000C94730054
:100060000C9473000C94730000000000240027001F
:100070002A0000000000250028002B0000000000DE
:1000800023002600290004040404040404040202DA
:100090000202020203030303030301020408102007
:1000A0004080010204081020010204081020000012
:1000B0000008000201000003040700000000000027
:1000C000000011241FBECFEFD8E0DEBFCDBF21E07E
:1000D000A0E0B1E001C01D92AF30B207E1F70E948D
:1000E00070010C9469020C940000833081F028F4B4
:1000F000813099F08230A9F008958730A9F08830D6
:10010000C9F08430B1F4809180008F7D03C080916C
:1001100080008F7780938000089584B58F7784BDA9
:10012000089584B58F7DFBCF8091B0008F77809349
:10013000B00008958091B0008F7DF9CFCF93DF9309
:10014000282F30E0F901E255FF4F8491F901E6567E
:10015000FF4FD491F901EA57FF4FC491CC23A1F08E
:1001600081110E947500EC2FF0E0EE0FFF1FE458A4
:10017000FF4FA591B491EC91ED2381E090E009F45B
:1001800080E0DF91CF91089580E090E0FACF1F9357
:10019000CF93DF93282F30E0F901E255FF4F849190
:1001A000F901E656FF4FD491F901EA57FF4FC49188
:1001B000CC23A9F0162F81110E947500EC2FF0E0DE
:1001C000EE0FFF1FEE58FF4FA591B4918FB7F89433
:1001D000EC91111108C0D095DE23DC938FBFDF9125
:1001E000CF911F910895DE2BF8CFCF93DF9390E04E
:1001F000FC01E656FF4F24918A579F4FFC018491E2
:100200008823D1F090E0880F991FFC01E859FF4F37
:10021000A591B491FC01EE58FF4FC591D4916111A5
:100220000EC09FB7F8948C91E22FE0958E238C93AB
:100230002881E223E8839FBFDF91CF9108958FB794
:10024000F894EC91E22BEC938FBFF6CF1F920F92B4
:100250000FB60F9211242F933F938F939F93AF93D9
:10026000BF9380910B0190910C01A0910D01B09171
:100270000E0130910A0123E0230F2D3758F5019626
:10028000A11DB11D20930A0180930B0190930C01D5
:10029000A0930D01B0930E0180910601909107018A
:1002A000A0910801B09109010196A11DB11D809393
:1002B000060190930701A0930801B0930901BF9133
:1002C000AF919F918F913F912F910F900FBE0F9003
:1002D0001F90189526E8230F0296A11DB11DD2CFBD
:1002E000789484B5826084BD84B5816084BD85B511
:1002F000826085BD85B5816085BD80916E0081601D
:1003000080936E00109281008091810082608093C2
:1003100081008091810081608093810080918000C4
:100320008160809380008091B10084608093B100EF
:100330008091B00081608093B00080917A008460E9
:1003400080937A0080917A00826080937A00809115
:100350007A00816080937A0080917A00806880932F
:100360007A001092C100109205011092040161E020
:1003700083E00E94F50061E084E00E94F50060E007
:1003800082E00E94F50000E010E0C2E0D0E083E0EF
:10039000E82EF12C809104019091050181309105A6
:1003A00061F168F08230910509F458C0039709F4AF
:1003B00060C00115110571F30E940000EBCF82E0CF
:1003C0000E949E0081309105A1F7909305018093D2
:1003D00004012FB7F89480910B0190910C01A0912A
:1003E0000D01B0910E012FBF809300019093010188
:1003F000A0930201B0930301DCCF82E00E949E0033
:10040000019709F061C02FB7F89480910B0190918A
:100410000C01A0910D01B0910E012FBF4091000180
:10042000509101016091020170910301841B950BB1
:10043000A60BB70B8897A105B10508F4BACF83E0E6
:100440000E949E0061E0892B09F060E083E00E9439
:10045000C700D0930501C0930401ABCF82E00E9496
:100460009E00892B09F0A5CFF0920501E0920401CE
:10047000B0CF82E00E949E00892B59F72FB7F894E5
:1004800080910B0190910C01A0910D01B0910E0192
:100490002FBF4091000150910101609102017091C4
:1004A0000301841B950BA60BB70B8897A105B1051B
:1004B00008F47FCF84E00E949E0061E0892B09F060
:1004C00060E084E00E94C7001092050110920401D0
:0604D00070CFF894FFCF8D
:00000001FF
